:020000040800F2
:10000000A008002029020008332600084524000823
:10001000312600081F040008DD2D00080000000044
:10002000000000000000000000000000372600086B
:10003000DD0400080000000035260008392600080D
:10004000430200084302000843020008430200087C
:10005000430200084302000843020008430200086C
:10006000430200084302000843020008430200085C
:100070004302000821040008430200082D04000880
:10008000430200084302000843020008430200083C
:10009000430200084302000843020008430200082C
:1000A00043020008E5260008430200084302000856
:1000B000430200084302000843020008430200080C
:1000C00043020008430200084302000843020008FC
:1000D00043020008430200084302000843020008EC
:1000E00043020008430200084302000843020008DC
:1000F00043020008430200084302000843020008CC
:1001000043020008430200084302000843020008BB
:10011000C529000843020008430200084302000802
:10012000430200084302000843020008430200089B
:10013000430200084302000843020008430200088B
:10014000430200084302000843020008430200087B
:10015000430200084302000843020008430200086B
:10016000430200084302000843020008430200085B
:100170004302000843020008430200080000000098
:10018000430200084302000800F002F800F03CF8C7
:100190000AA090E8000C82448344AAF10107DA45E2
:1001A00001D100F031F8AFF2090EBAE80F0013F0F8
:1001B000010F18BFFB1A43F0010318471C2D000064
:1001C0003C2D0000103A24BF78C878C1FAD85207F5
:1001D00024BF30C830C144BF04680C6070470000C1
:1001E0000023002400250026103A28BF78C1FBD840
:1001F000520728BF30C148BF0B6070471FB502F0DF
:1002000055FE1FBD10B510BD00F0CFF81146FFF729
:10021000F5FF02F0F5FD00F0EDF803B4FFF7F2FF93
:1002200003BC00F0F5F80000094880470948004782
:10023000FEE7FEE7FEE7FEE7FEE7FEE7FEE7FEE796
:10024000FEE7FEE704480549054A064B70470000F3
:10025000D526000889010008A0020020A00800207F
:10026000A0040020A004002053EA020C00F06980E2
:100270002DE9F04B4FF00006002B1FBFB3FA83F5BA
:1002800003FA05F424FA05F65E4012BF1643B2FAEB
:1002900082F502FA05F4C5F120051EBF22FA05FC1D
:1002A00044EA0C04203556EA044C4FEA144418BFC3
:1002B000641C4FF000084FF00009904271EB030CF2
:1002C00039D3002919BFB1FA81F701FA07F6B0FA5C
:1002D00080F700FA07F6C7F120071EBF20FA07FCD7
:1002E00046EA0C062037B6FBF4FCA7EB0507103FE7
:1002F00007F01F0BCBF120060CFA0BFB2CFA06F6CD
:1003000044BFB3460026202FA4BF5E464FF0000B2B
:100310005BEA060C08BF4FF0010B19EB0B09ABFBB6
:10032000027C48EB0608C01B06FB02CC0BFB03CC8F
:1003300071EB0C01C1E70B46024641464846BDE859
:10034000F08B13B54FF000004FF00001AFF30080C9
:10035000BDE81C4070474FF0000200B513469446BC
:100360009646203922BFA0E80C50A0E80C50B1F10D
:100370002001BFF4F7AF090728BFA0E80C5048BF21
:100380000CC05DF804EB890028BF40F8042B08BFBF
:10039000704748BF20F8022B11F0804F18BF00F8BB
:1003A000012B7047704770477047754600F02CF876
:1003B000AE4605006946534620F00700854618B052
:1003C00020B5FFF73FFFBDE820404FF000064FF09B
:1003D00000074FF000084FF0000B21F00701AC467A
:1003E000ACE8C009ACE8C009ACE8C009ACE8C00999
:1003F0008D46704710B50446AFF300802046BDE837
:100400001040FFF70ABF000000487047400200207C
:1004100001491820ABBEFEE7260002007047FEE748
:10042000014800F0F9B8000080010020014800F008
:10043000F3B80000E001002001681823CAB2103AA6
:10044000B2FBF3F2054B6FF30901032A9B5CC36512
:1004500000D9091D8165084670470000B62E0008C6
:1004600010B5014600208B698A6A4FF0C07453B101
:10047000B3F5005F15D072B1012A0CD0022A0AD060
:10048000032A09D104E01AB1012A06D0022A03D1B5
:10049000C96AC90100D5012010BDC96AA142FAD0BC
:1004A00010BD002AF7D0012AF2D0022AF3D0032A85
:1004B000F3D010BD30B50468256825F4802525608B
:1004C000046863608368402B036803D09960006808
:1004D000C26030BD9A600068C16030BD70470000E6
:1004E00030B589B0044624216846FFF734FF194D22
:1004F000287884422BD00021174A01201CB1032305
:100500000093516002E00223009053604FF080435B
:1005100013604FF0FF33C2E9021311619161CDE91D
:10052000011003910491CDE9051007910891042170
:10053000094801F072F9084801F06CF8694606486C
:1005400001F08EF80421044801F020F92C7009B064
:1005500030BD000000000020AC00002072B6FEE7B5
:100560002DE9F0410446876D00F07AFB064694F8C9
:1005700035000025022806D08020606584F83450BC
:100580000120BDE8F0812068016821F016010160BA
:100590002068416921F080014161206C08B9A06C9C
:1005A00020B12068016821F008010160206801681D
:1005B00021F0010101600CE000F052FB801B0528D6
:1005C00007D920206065032084F8350084F8345072
:1005D000D7E720680068C007EED194F85C103F2090
:1005E0008840B860012084F8350084F83450002039
:1005F000C7E790F83510022903D08021416501201A
:100600007047052180F835100068016821F001016C
:1006100001600020704700002DE9F84304464FF0C8
:100620000009CDF8009063484FF41651A56D00689D
:10063000B0FBF1F72E6894F85C10082000FA01F185
:1006400031420FD021680A6852070BD50A6822F0A0
:1006500004020A6094F85C108840A860606D40F065
:100660000100606594F85C104FF0010808FA01F091
:10067000304208D021684969090604D5A860606D38
:1006800040F00200606594F85C100420884030421D
:1006900008D021680968890704D5A860606D40F01A
:1006A0000400606594F85C1010208840304218D037
:1006B00021680968090714D5A86020680168490302
:1006C00004D50068000308D5A16C07E00168C905DE
:1006D00003D4016821F008010160216C09B12046B2
:1006E000884794F85C1020208840304231D021683F
:1006F0000968C9062DD5A86094F83500052820683A
:10070000016806D0490347D5006800031DD4616C19
:100710001CE021F0160101602068416921F0800190
:100720004161206C08B9A06C20B12068016821F0FB
:100730000801016094F85C103F208840A86084F8AC
:10074000358084F83490216D1FE0E16B09B12046BB
:100750008847606D00282BD0606DC00714D005203D
:1007600084F835002068016821F0010101600098DB
:10077000401C0090B84203D820680068C007F6D13A
:1007800084F8358084F83490E16C002910D001B0F1
:100790002046BDE8F04308470168C905D5D4016883
:1007A00021F01001016084F8358084F83490CCE7A2
:1007B000BDE8F883600000202DE9F041044600F018
:1007C0004FFA06465CB1022084F83500002584F813
:1007D00034502068016821F0010101600DE0012022
:1007E000BDE8F08100F03CFA801B052805D92020E7
:1007F0006065032084F83500F2E720680068C007D0
:10080000F0D12268116820480140D4E9010318435F
:10081000D4E903363343184363691843A369184383
:10082000E3691843236A18430843616A042903D122
:10083000D4E90B1319430843106020684069666AC5
:1008400020F0070130460E43012704280CD1A06A8E
:100850000643E06A40B12046FFF702FE20B1402087
:10086000606584F83570BAE7206846612046FFF776
:10087000E3FD94F85C203F2191408160656584F838
:1008800035700020ACE700003F8010F02DE9F0410A
:100890000446866D90F83400002501280DD0012013
:1008A00084F8340094F835700020012F07D084F8C4
:1008B000340002252846BDE8F0810220FBE702272C
:1008C00084F8357060652046FFF7F4FD94F85C10FD
:1008D0003F208840B0602068016841F01601016047
:1008E000206C20B12068016841F008010160206897
:1008F000016841F001010160DCE700002DE9F04FE3
:100900000022DFF838B101264FF00F0906FA02F491
:1009100001EA0403A3427DD122F003075F44D7F824
:10092000088895074FEA157C09FA0CFA0AEA0805C7
:10093000DFF80C81404502D14FF0000832E0DFF8CB
:100940000481404502D14FF001082BE0DFF8F88028
:10095000404502D14FF0020824E0DFF8F080404526
:1009600002D14FF003081DE0DFF8E480404502D1DA
:100970004FF0040816E0DFF8DC80404502D14FF06C
:1009800005080FE0DFF8D080404502D14FF006089F
:1009900008E0DFF8C880404502D14FF0070801E0C9
:1009A0004FF0080808FA0CF8A84522D12C4DD5F8CC
:1009B00000C02CEA030CC5F800C005F1040CDCF8FB
:1009C00000509D43CCF80050254D0C35D5F800C0A3
:1009D0002CEA030CC5F800C02D1FD5F800C02CEA86
:1009E000030CC5F800C0D7F8085825EA0A05C7F86F
:1009F0000858056857000323BB409D430560D50890
:100A000000EB8505D5F820C057074FEAD76809FAEB
:100A100008F700E00CE02CEA070CC5F820C0C56818
:100A20009D43C5604568A543456084689C438460D8
:100A3000521C102AFFF46AAFBDE8F08F003001406D
:100A4000000002400004024000080240000C024086
:100A5000001002400014024000180240001C024036
:100A6000003C01402DE9F84FDFF8BCA10022012530
:100A700003264FF00F090AF1040BAAF1040E00BF80
:100A80000B6805FA02F42340A34270D10F7907F0F6
:100A90000307012F01D0022F16D187684FEA4208C1
:100AA00006FA08FC27EA0C07D1F80CC00CFA08FC7F
:100AB0004CEA070CC0F808C04768A7430C79C4F398
:100AC000001494403C4344600C79E443A4070AD0EA
:100AD000C4684FEA420C06FA0CF7BC438F6807FA69
:100AE0000CF72743C7600C7904F00304022C12D1E1
:100AF000D40800EB840CDCF820405707FF0E09FAFD
:100B000007F824EA0804D1F8108008FA07F848EA40
:100B10000408CCF8208004684FEA420C06FA0CF76F
:100B2000BC430F7907F0030707FA0CF72743076068
:100B30004C6814F4403F70D03C4C276847F4804721
:100B40002760246822F0030704F480440094384CA2
:100B500007EB040CDCF8084897074FEA177809FA06
:100B600008F7BC43334FB84202D1002724E054E0D9
:100B7000314FB84201D101271EE0304FB84201D1B8
:100B8000022719E02E4FB84201D1032714E02D4F60
:100B9000B84201D104270FE02B4FB84201D10527FD
:100BA0000AE02A4FB84201D1062705E0284FB84293
:100BB00001D1072700E0082707FA08F72743CCF8F8
:100BC0000878DAF800405746D1F804C09C435FEA41
:100BD000CC2C00D51C433C60DBF800405F46D1F8CC
:100BE00004C09C435FEA8C2C00D51C433C60DEF8BB
:100BF00000407746D1F804C09C435FEA8C3C00D5A6
:100C00001C433C60084F083F3C68D1F804C09C433B
:100C10005FEACC3C00D51C433C60521C102AFFF418
:100C20002FAFBDE8F88F0000083C01404438024077
:100C30000030014000000240000402400008024071
:100C4000000C024000100240001402400018024054
:100C5000001C02400AB1816170470904FBE70000F3
:100C600001488068704700005400002002488168F5
:100C70000278114481607047540000200B4810B581
:100C8000016841F400710160016841F48061016014
:100C9000016841F480710160032000F06FF80F20BB
:100CA00000F006F800F024F8002010BD003C0240DF
:100CB00070B50D4D04464FF47A712878B1FBF0F011
:100CC0000A490968B1FBF0F000F00AFB48B9102CA2
:100CD00007D200222146501E00F030F800206C6040
:100CE00070BD012070BD0000540000206000002095
:100CF0000A4808B5016841F480410160006800F4C9
:100D0000804000900548001F016841F0805101605B
:100D1000006800F08050009008BD00004438024098
:100D2000002809DB00F01F020121914040098000EA
:100D300000F1E020C0F8001170470000F0B40E4B45
:100D40001B680C46C3F30223C3F10705042D00D929
:100D50000425191D072901D2002300E0DB1E01260E
:100D600006FA05F1491E214099409E40761E164024
:100D70003143F0BC02F033B80CED00E0064900F05E
:100D8000070208684FF6FF03184040EA0220034AB2
:100D900010430860704700000CED00E00000FA0509
:100DA0002DE9F0470E46050065D0DFF81481D8F82C
:100DB0000000F7B200F00700B04207D288F80070D8
:100DC000D8F8000000F00700B04254D128683D4C2C
:100DD000810712D5400703D5206840F4E050206019
:100DE0002878000703D5206840F460402060206820
:100DF000A96820F0F000084320602878C0072DD0B3
:100E0000304968680839012812D0022813D0032815
:100E100011D00968890700292DDA216821F0030122
:100E200001432160FFF71CFF814641F2883A0EE042
:100E300009688903EFE709688901ECE7FFF710FF0C
:100E4000A0EB0901514502D90320BDE8F0872068D5
:100E5000696800F00C00B0EB810FEFD1D8F80010FA
:100E6000404601F00701B14207D90770006800F061
:100E70000700B04201D00120E7E72878400705D5F8
:100E80002068E96820F4E0500843206028780007D3
:100E900006D52068296920F4604040EAC10020603E
:100EA00000F038F82168084AC1F30311515CC840CA
:100EB0000649086006480068FFF7FAFE0020C4E70C
:100EC000003C024008380240BE2E000860000020AE
:100ED000580000200448054900680968044AC1F325
:100EE0008221515CC84070476000002008380240F1
:100EF000CE2E00080448054900680968044AC1F379
:100F00004231515CC8407047600000200838024000
:100F1000CE2E0008154810B5006810F00C021448D9
:100F200013D04110042A0FD0082A0ED10F4C241FD1
:100F30002268236802F03F025B0207D52068C0F3F5
:100F40008810A0FB010106E0084610BD2168C1F32E
:100F50008811A1FB00010023FFF786F92168C1F386
:100F60000141491C4900B0FBF1F010BD08380240B6
:100F70000024F4002DE9F84F04006ED02078DFF84B
:100F80004C93C007A9F104054AD009F10400016897
:100F9000C1F38101012908D00068C0F38100022853
:100FA0000AD1D9F80000400206D52868800337D559
:100FB00060680028E1D033E06068B0F5803F10D071
:100FC000B0F5A02F286810D020F480302860286861
:100FD00020F4802028606068A8B1FFF741FE064633
:100FE0000DE0286840F48030F4E740F48020286069
:100FF000F7E700BFFFF734FE801B642873D828682A
:101000008003F7D50CE0FFF72BFE064605E000BF96
:10101000FFF726FE801B6428F0D828688003F7D4E9
:101020002078DFF8AC8280074FF0000A3ED5A74851
:10103000001D016811F00C0F08D00068C0F381009A
:1010400002280BD1D9F80000400207D42868800795
:1010500016D5E068012800D112E033E1E068B8B1AC
:101060000120C8F80000FFF7FBFD064605E000BFC1
:10107000FFF7F6FD801B0228C0D828688007F7D547
:101080002868216920F0F80040EAC10028600DE0DE
:10109000C8F800A0FFF7E4FD064604E0FFF7E0FD16
:1010A000801B02281FD828688007F7D42078000703
:1010B00022D5864F87486169703771B1012101607F
:1010C000FFF7CEFD064604E0FFF7CAFD801B0228AD
:1010D00009D838688007F7D50EE0C0F800A0FFF700
:1010E000BFFD064605E082E0FFF7BAFD801B02283F
:1010F0007DD838688007F7D42078400768D5DFF8B6
:10110000CCB100270BF13C0BDBF80000C0000BD486
:10111000DBF8001041F08051CBF80010DBF8000044
:10112000012700F0805000906B4E3068C00510D44D
:10113000306840F480703060FFF792FD009005E069
:10114000FFF78EFD0099401A022850D83068C0057C
:10115000F6D55E4EA0686C3601280FD005283068A1
:1011600010D020F001003060306820F004003060C2
:10117000A068B8B1FFF774FD00900FE0306840F050
:101180000100F4E740F004003060F7E7FFF768FD86
:101190000099411A41F28830814266D83068800750
:1011A000F4D50EE0FFF75CFD009007E0FFF758FD77
:1011B0000099411A41F28830814256D83068800740
:1011C000F4D42FB1DBF8001021F08051CBF80010DF
:1011D000A069C8B33D49091D0968C1F3810102290D
:1011E0004AD00228504607D0C8F8600000E03CE032
:1011F000FFF736FD04463BE04746C8F86000FFF7BE
:101200002FFD064605E000BFFFF72AFD801B0228E0
:101210002BD828688001F7D4D4E907010843A16AD4
:101220002E4A490802EB0141626A41EA82110843F1
:1012300094F82C1040EA0161C9F8001001203866CA
:10124000FFF70EFD044606E03EE000BFFFF708FD95
:10125000001B022809D828688001F7D534E000BFB8
:10126000FFF7FEFC001B022802D90320BDE8F88F1F
:1012700028688001F4D427E00128F7D0D9F80000CD
:10128000E26900F4800191421CD1226A00F03F0122
:10129000914217D147F6C071626A0140B1EB821FDB
:1012A00010D1A26A4FF0FF3300F4403103EB520239
:1012B000B1EB024F06D194F82C1000F07060B0EB47
:1012C000016F01D00120D1E70020CFE704380240B0
:1012D00000004742800E4742007000400000FFFFC0
:1012E00010B5401EB0F1807F01D3012010BD4FF03A
:1012F000E02460610F21601701F071FD0020A06102
:1013000007202061002010BD7047704710B590F88D
:101310003C20012A22D0012280F83C20CA688C6837
:1013200022F4407222434C6822F4806222430C680B
:1013300022F4006222430C6922F4805222434C6959
:1013400022F400522243C969002322F480420A4356
:1013500001684A6480F83C30002010BD022010BDB6
:1013600070B590F83C20012A32D0012480F83C402E
:10137000022280F83D2003685A689D6822F07006BA
:101380000A6832435A60134B02689A4214D0B2F191
:10139000804F11D0104B9A420ED0104B9A420BD076
:1013A0000F4B9A4208D00F4B9A4205D00E4B9A42EF
:1013B00002D00E4B9A4204D1496825F080031943AC
:1013C000916080F83D40002180F83C10084670BDD7
:1013D000022070BD000001400004004000080040F1
:1013E000000C004000040140004001400018004093
:1013F00010B5040003D094F83D0010B107E00120BF
:1014000010BD002084F83C00204600F01FF80220A8
:1014100084F83D00211D206801F06AF9012084F85C
:10142000460084F83E0084F83F0084F8400084F8C9
:10143000410084F8420084F8430084F8440084F8B2
:10144000450084F83D00002010BD000008B500688C
:101450000B49884212D10B48016841F0010101603B
:101460000068002200F00100009011461920FFF7EB
:1014700065FCBDE808401920FFF752BC08BD00001C
:10148000000001404438024090F83D10012901D08D
:1014900001207047022180F83D100168CA6842F0BF
:1014A0000102CA6000681149884214D0B0F1804F2F
:1014B00011D00F4988420ED00E4988420BD00E49F8
:1014C000884208D00D49884205D00D49884202D093
:1014D0000C49884204D1816801F00701062903D034
:1014E000016841F0010101600020704700000140E7
:1014F0000004004000080040000C004000040140CF
:1015000000400140001800400168CA6822F0010252
:10151000CA6001680A6A41F211131A4207D10A6AC5
:101520009B101A4203D10A6822F001020A600121CD
:1015300080F83D100020704770B5044690F83C00DC
:101540000025012817D0012684F83C60022084F889
:101550003D002068826822F0770222F47F42826098
:101560000868502838D00DDC20284FD005DC90B317
:10157000102811D14AE0022070BD302846D0402802
:101580000AD13BE060282FD070280DD0B0F5805FE5
:1015900003D0B0F5005F12D0012584F83D60002033
:1015A00084F83C00284670BDCB68D1E90121206851
:1015B00001F00FF92068816841F0770109E0CB68FC
:1015C000D1E90121206801F004F92068816841F423
:1015D00080418160E1E719E0CA684968206801F04C
:1015E000CDF95021206806E0CA684968206801F0FA
:1015F000D6F96021206801F0F6F8CEE7CA6849689C
:10160000206801F0BBF940212068F4E72268014618
:101610001046F0E710B50446022084F83D0020682B
:10162000016A41F21112114207D1016A921011426E
:1016300003D1016821F001010160204600F062F849
:10164000002084F8460084F83E0084F83F0084F8C7
:10165000420084F8430084F83D0084F83C0010BD4B
:101660002DE9F0410D46040003D094F83D0018B177
:1016700008E00120BDE8F081002084F83C0020460D
:1016800000F052F8022084F83D002068816844F29E
:10169000070291438160211D206801F029F822682A
:1016A00090689169166A2B68AF69034340F2033072
:1016B000814341EA0721A868EF6908434FF6FC41DE
:1016C0008843E96840EA0720014328692F6A00013E
:1016D00040EA0730084369686D6926F0AA0646EAC1
:1016E0000515294393602268906154F8460B016206
:1016F000012004F81F09E0752076E0762077A075B8
:101700000020B7E70068B0F1804F08D104480168B5
:1017100021F00101016003210248FFF7EFB8704793
:10172000403802400000024010B586B00446142143
:101730006846FEF710FE2068B0F1804F1FD11148B7
:101740000021026842F001020260006800F001001E
:1017500005900C481038026842F0010202600068EF
:1017600000F001000590032000900220CDE9010166
:101770000120CDE9031069460348FFF773F906B06D
:1017800010BD0000403802400000024070B590F8E3
:101790003E60044690F83F5090F8423090F8432065
:1017A000022021B104290ED0012E1BD114E0012EFC
:1017B00018D1012B16D184F83E0084F84200012292
:1017C0000021206820E0012D0CD1012A0AD184F8E3
:1017D0003F0084F8430014E0012D03D1012B01D117
:1017E000012A01D0012070BD84F83E0084F83F003A
:1017F00084F8420084F8430001220021206800F0B0
:10180000DBFF01220421206800F0D6FF2068016878
:1018100041F001010160002070BD30B50446006850
:101820000D0023D0042D04D00022114600F0C4FF87
:1018300020680022042100F0BFFF2068016A41F205
:101840001112114207D1016A9210114203D10168AD
:1018500021F00101016001205DB1042D0DD004F8DB
:101860003E0F607020716071002030BD0022114673
:10187000E1E704F83E0F2071F6E704F83F0FFAE7BE
:10188000704770B50446006801694FF00005C94310
:10189000890715D4C168C943890711D4E91E0161BC
:1018A00001202077206880698007204602D0FFF75A
:1018B000E7FF04E000F0C2F8204600F067F9257762
:1018C00020680169C943490717D4C168C94349075A
:1018D00013D46FF004010161022020772068806931
:1018E00010F4407F204602D0FFF7CAFF04E000F06A
:1018F000A5F8204600F04AF9257720680169C94318
:10190000090716D4C168C943090712D46FF008014A
:101910000161042020772068C0698007204602D03A
:10192000FFF7AEFF04E000F089F8204600F02EF942
:10193000257720680169C943C90617D4C168C9431E
:10194000C90613D46FF010010161082020772068C8
:10195000C06910F4407F204602D0FFF791FF04E0F9
:1019600000F06CF8204600F011F925772068016935
:10197000C943C90708D1C168C943C90704D1891E31
:101980000161204600F068F920680169C943090631
:1019900009D4C168C943090605D46FF0800101610B
:1019A0002046FFF7B1FC20680169C943490609D404
:1019B000C168C943490605D46FF040010161204662
:1019C00000F098FA20680169C94389060BD4C16800
:1019D000C943890607D46FF0200101612046BDE8A4
:1019E0007040FFF792BC70BD10B586B0044614215C
:1019F0006846FEF7B0FC0E492068884215D10D48B4
:101A00000021026842F004020260006800F0040055
:101A10000590402000900220CDE901010320CDE98E
:101A2000031069460448FFF71DF806B010BD00001A
:101A3000000401403038024000080240704770B591
:101A4000044690F83C0000260D4601280FD00120E6
:101A500084F83C006AB1042A1DD0082A2FD00C2A31
:101A60003FD00126002084F83C00304670BD0220A3
:101A700070BD206800F0C0FE2068816941F0080157
:101A800081612068816921F0040181612068816998
:101A90002A69114311E0206800F0DEFE20688169A8
:101AA00041F4006181612068816921F48061816174
:101AB000206881692A6941EA02218161D2E72068B0
:101AC00000F000FF2068C16941F00801C161206891
:101AD000C16921F00401C1612068C1692A6911430B
:101AE00011E0206800F022FF2068C16941F4006124
:101AF000C1612068C16921F48061C1612068C16948
:101B00002A6941EA0221C161ACE710B5040003D0A3
:101B100094F83D0010B107E0012010BD002084F8CA
:101B20003C00204600F01EF8022084F83D00211DF4
:101B3000206800F0DDFD012084F8460084F83E00B6
:101B400084F83F0084F8400084F8410084F84200A3
:101B500084F8430084F8440084F8450084F83D008C
:101B6000002010BD08B500680649884208D1064823
:101B7000016841F002010160006800F0020000907D
:101B800008BD0000000401404438024070470000D6
:101B900010B50446022249B104290ED0082913D0F9
:101BA00094F84100012816D0012010BD94F83E00A1
:101BB0000128F9D184F83E200FE094F83F00012875
:101BC000F2D184F83F2008E094F840000128EBD1DE
:101BD00084F8402001E084F841200122206800F0D0
:101BE000EBFD16492068164A884201D0904203D185
:101BF000436C43F4004343642068884213D0B0F13F
:101C0000804F10D00F4988420DD00F4988420AD02A
:101C10000E49884207D0904205D00D49884202D033
:101C20000C49884204D1816801F00701062903D0DC
:101C3000016841F001010160002010BD0000014079
:101C4000000401400004004000080040000C004077
:101C500000400140001800402DE9F0410068A14912
:101C600088427DD1A148A04C00F148070368204676
:101C700094F801C090ED080AD0ED0A0A90ED092A07
:101C800090ED071A60EE201A8915994E3868F0EE2B
:101C9000002AB6EE003A4FF07C524FF4007804F17F
:101CA0001605BCF1010F7CD06788A7805B6A638052
:101CB000DB1B1BB241F69C076382BB4200DD6382E3
:101CC000B4F9123041F69C07FB4200DA6382638A62
:101CD00040F6B83713FB07F34FF4BB7793FBF7F3EA
:101CE0001BB2E381B4F91070002F7CD0FB1A00EE18
:101CF000103AF8EEC03A94ED110A40EE623AD4ED93
:101D0000122A73EEA22A62EE822A82EEA02A00EE46
:101D1000903AF8EEE00A70EE200A61EEA01A00EEAA
:101D2000903AF8EEE00A70EEC02AD4ED0F0A41EEC8
:101D3000220A41EE830A32EE201A84ED101AFDEEDB
:101D4000C10A10EE907A3FB200EE907AA782F8EEC8
:101D5000E00A71EE600A10EE90CA944503DD00E0DF
:101D6000BEE07F1CA78284ED120A00EE103AB8EEA6
:101D7000C00A84ED110AB4F9142000EE102A002ADA
:101D8000B8EEC00A84ED0F0A74DBB2F57A7F02DB8D
:101D900040F2E732A282B4F91420426300223046B6
:101DA00000E003E0FEF756FF012284E05B6A6380F7
:101DB000E788FB1A1BB200EE103A6381F8EEC03AD6
:101DC00094ED0D0A40EE623AD4ED0E2A73EEA22A8B
:101DD00062EE822A82EEA02A00EE903AF8EEE00A45
:101DE00070EE800A00E079E061EEA01A00EE903A11
:101DF000F8EEE00A70EEC02AD4ED0C0A41EE220A99
:101E000041EE830A32EE201A84ED0B1AFDEEC10A70
:101E100010EE907A3FB200EE907AA781F8EEE00AD9
:101E200071EE600A10EE90CA944501DD7F1CA78117
:101E3000B4F90C702289974202DC5242974200DAD0
:101E4000A28184ED0E0A00EE103AB8EEC00A84EDCD
:101E50000D0AB4F90C2000EE102A002AB8EEC00AD0
:101E600084ED0C0A07DB426300223046FEF7F2FEE7
:101E7000012207E010E05242426301223046FEF7A1
:101E8000E9FE002241463046FEF7E4FE6088010A82
:101E900029706870FF2017E012F57A7F02DC4FF698
:101EA0001942A282B4F91420524242630122304600
:101EB000FEF7D0FE002241463046FEF7CBFEE08919
:101EC000010A29706870FE20A870BDE8F04106493B
:101ED000064803221631903000F06CBA0022E6E783
:101EE000BDE8F0810000014000000020AC000020AF
:101EF000000802407047704770470000F8B501685D
:101F000004460868CA684B6910F00F0F4FF00005CF
:101F100059D003F0010602F49077374365D0C1072A
:101F200005D0D10503D5216C41F0010121644107A1
:101F300005D5D90703D0216C41F002012164810746
:101F400005D5D90703D0216C41F0040121640107B4
:101F500007D502F02001314303D0216C41F0080184
:101F60002164216C00293AD0800604D5900602D560
:101F7000204600F003FE20684069216CC0F3801009
:101F8000090700D460B3204600F0C3FD2068406913
:101F9000400621D52068143050E8001F21F0400190
:101FA00040E80012002AF5D1A06BA8B16C49016588
:101FB000A06BFEF71EFB002811D0A06B016D01B0D5
:101FC000BDE8F040084783060FD593060DD520469F
:101FD000BDE8F84000F0D2BD2046FFF78DFFF8BD08
:101FE0002046FFF789FF2564F8BD266B2023012ECC
:101FF00079D1C60677D5D60675D5086848680090A9
:102000004869400640D5A16B086840680004000C90
:10201000EAD0A28D8242E7D9E085C869B0F5807F19
:102020002DD020680C3050E8001F21F4807140E86A
:102030000012002AF5D12068143050E8001F21F06A
:10204000010140E80012002AF5D12068143050E860
:10205000001F21F0400140E80012002AF5D184F869
:102060003E30256320680C3050E8001F21F010013D
:1020700040E80012002AF5D1A06BFEF771FAA08D9E
:10208000E18D401A81B229E0A08DE18D401A81B224
:10209000E08D0028A8D00029A6D020680C3050E898
:1020A000002F22F4907240E80026002EF5D120681F
:1020B000143050E8002F22F0010240E80026002EE4
:1020C000F5D184F83E30256320680C3050E8002FAD
:1020D00022F0100240E80023002BF5D12046FFF744
:1020E0000AFFF8BDFFE705062BD5150629D594F89C
:1020F0003D002128F5D1A068B0F5805F01D12069AD
:10210000B0B1206A411C2162216800784860E08CEF
:10211000401E0004000CE084E3D12068C16821F077
:102120008001C1602068C16841F04001C160D8E70A
:10213000206A0088C0F308004860206A801C206282
:10214000E5E74006CDD55006CBD5CA68204622F03B
:102150004002CA6084F83D3000F072F9C1E7000027
:10216000D129000870B5040004D094F83D00002582
:1021700010B106E0012070BD84F83C50204600F00C
:1021800023F8242084F83D002068C16821F4005120
:10219000C160204600F052FD2068016921F49041A1
:1021A00001612068416921F02A0141612068C1680C
:1021B00041F40051C1602564202084F83D0084F87A
:1021C0003E00002070BD00002DE9F04186B00646BB
:1021D00014216846FEF7BFF82F493068884257D16E
:1021E0002E480024016841F400210160006800F4D9
:1021F0000020059029481038016841F00401016071
:102200000068694600F0040005904FF440600090BB
:102210000220CDE901040320039008200490204807
:10222000FEF720FC204D1F484FF4806847052860CA
:10223000C5E90174C5E9034880156C61C5E906402C
:102240002C6228466C62FEF7B7FA08B1FEF786F9F1
:10225000B563AE631348154D3030E5E80207402002
:10226000A5E81101114845F81449AC61EC612C62F4
:102270006C62FEF7A1FA08B1FEF770F975630022EF
:1022800011463420AE63FEF759FD3420FEF748FDB9
:1022900006B0BDE8F0810000004C0040403802402C
:1022A000000802404060024080010020E001002060
:1022B00090F83E30202B0ED159B152B190F83C30FD
:1022C000012B08D0012380F83C300023036300F089
:1022D0003BBD0120704702207047000070B5324CB2
:1022E0006079232810D12078442822D0492816D09C
:1022F00050280AD00026532829D02C48FFF704F98B
:102300002A4890300068466370BD00202649221894
:10231000303952780A54401C0428F7DB70BD002085
:10232000214922182C3952780A54401C0428F7DB22
:1023300070BD00201C492218283952780A54401CCC
:102340000428F7DBBDE870401848FFF79DB8164D2C
:1023500020794C3D502809D05628E9D16E7005F1FE
:10236000100061780170A178417070BD6878012813
:1023700006D02878A0B10020FEF7B2F801206870DE
:102380000948617846380170A1784170E0783128B9
:1023900008D03428E9D10120BDE87040FEF7A0B88C
:1023A0000120E9E70020F7E74C000020640000204E
:1023B0007047000070B5044690F83D00202836D1E3
:1023C00091B38AB394F83C00012830D0012084F8FE
:1023D0003C002162A284E28400252564212084F847
:1023E0003D00636B1348D863636B13481864636BD9
:1023F0001248D864606B134605652668606B321D11
:10240000FEF744FA21686FF04000086084F83C5001
:102410002068143050E8001F41F0800140E80012AD
:10242000002AF5D1002070BDFFE70120FBE7022064
:10243000F9E70000C72A0008092B0008E129000875
:1024400070477047FEE7000070B586B014216846FB
:10245000FDF781FF16480024016841F0800101600A
:10246000016801F080010591016841F001010160FE
:10247000016801F001010591016841F0040101606A
:1024800000680C4E00F004004FF4407505900022E7
:1024900029463046FEF7DEFB01200095CDE9010418
:1024A000694630460394FEF7DDFA06B070BD0000C1
:1024B000303802400008024010B586B000241848A9
:1024C00000940194029403940494144905940160C7
:1024D00040F2F311C0E9011440F28F61C0E9031426
:1024E00044618461FEF784FF08B172B6FEE74FF4E1
:1024F0008050009069460A48FFF71EF808B172B68E
:10250000FEE7049404A906480594FEF729FF002875
:1025100001D072B6FEE706B010BD00000000014019
:102520006400002010B58CB024216846FDF713FF2D
:102530000024154809944FF080410A94C0E9001422
:102540004FF6FF71C0E90241046184610320CDE9C7
:1025500000040120CDE902040494CDE9054007946C
:10256000694609480894FFF77BF808B172B6FEE7A0
:10257000099409A904480A94FEF7F2FE002801D044
:1025800072B6FEE70CB010BDAC00002010B592B0E2
:1025900000240F941C2108A81094FDF7DCFE2021D4
:1025A0006846FDF7D8FE20481E4901605321C0E966
:1025B00001141E490989C0E9031444618461FFF7CD
:1025C000A4FA08B172B6FEE70F940FA9164810944A
:1025D000FEF7C6FE08B172B6FEE76020CDE908043A
:1025E0000A940B940C940D94002208A90E480E94A2
:1025F000FFF725FA08B172B6FEE700944FF40050D9
:10260000CDE9044002940194039469460648079476
:10261000FEF77CFE08B172B6FEE70348FFF7E4F967
:1026200012B010BD00040140F400002000000020A2
:10263000FEE7FEE770477047FEF718BB30B593B072
:1026400030216846FDF787FE14210CA8FDF783FEB4
:102650001E480025016841F080510160006800F0CB
:10266000805011901A48016841F48041016000686F
:10267000022400F480401190012000900004019099
:102680008001CDE90640082008904FF4A870CDE9FC
:10269000090404200B906846FEF76CFC08B172B682
:1026A000FEE70CA90F2081E831004FF4A0500F90F5
:1026B0004FF48050109005210CA8FEF771FB002804
:1026C00001D072B6FEE713B030BD000040380240C2
:1026D000007000400248016841F4700101607047D9
:1026E00088ED00E00148FFF7CCB80000640000204E
:1026F000F0B50268254C264D264E274F274B4FF04C
:10270000804CA04209D0604507D0A84205D0B04215
:1027100003D0B84201D0984204D122F0700E4A682A
:1027200042EA0E02A0421BD0604519D0A84217D041
:10273000B04215D0B84213D0984211D0184DA842DB
:102740000ED0184DA8420BD0174DA84208D0174DF7
:10275000A84205D0164DA84202D0164DA84203D17A
:1027600022F44075CA682A434D6922F080022A4348
:1027700002608A68C2620A688262A04201D09842FE
:1027800001D10969016301214161F0BD00000140EF
:102790000004004000080040000C0040000401401C
:1027A0000040014000440140004801400018004042
:1027B000001C00400020004010B501F01F03012163
:1027C000046A99408C430462016A9A401143016291
:1027D00010BD10B5846842EA032224F47F440A4302
:1027E0002243826010BD826822F070020A4342F0E8
:1027F0000701816070470000F0B5026A22F0010213
:102800000262036A42688469124E24F073050C6800
:102810002C4323F002058B682B430D4DA84201D0B9
:10282000B04205D123F00807CB683B4323F00403F3
:10283000A84201D0B04205D14D6922F4407215433F
:102840008A692A4342608461496841630362F0BD3A
:102850000000014000040140F0B5026A22F01002BD
:102860000262026A436884690D6824F4E64444EA1B
:1028700005248D6822F0200242EA05120F4D104E09
:10288000A84201D0B04206D1CF6822F0800242EACD
:10289000071222F04002A84201D0B04207D14D6990
:1028A00023F4406343EA85038D6943EA850343606B
:1028B0008461496881630262F0BD0000000001404C
:1028C00000040140F0B5026A22F480720262026ADA
:1028D0004368C46922F4007224F073050C68124E38
:1028E0002C438D6842EA05220E4DA84201D0B04229
:1028F00006D1CF6822F4006242EA072222F4806205
:10290000A84201D0B04207D14D6923F4405343EAB5
:1029100005138D6943EA05134360C4614968C163C7
:102920000262F0BD000001400004014030B5026ABF
:1029300022F480520262046A4268C3690D6823F47B
:10294000E64343EA05238D6824F4005444EA053441
:10295000084DA84202D0084DA84204D14D6922F486
:10296000804242EA85124260C361496801640462A0
:1029700030BD0000000001400004014010B5036AB2
:10298000046A24F001040462846924F0F00444EA37
:10299000021423F00A020A438461026210BD10B5DA
:1029A000036A23F0100303628369046A23F470430B
:1029B00043EA023224F0A00343EA0111826101627A
:1029C00010BD00000148FFF799BA00003C0100204B
:1029D00010B5806B0021C185C184FFF78DFA10BD51
:1029E00070B5846B2068406994F83D10C0F3C01046
:1029F0000025212904D118B1E584204600F0B0F863
:102A00002068406994F83E10C0F38010222904D158
:102A100018B1E585204600F07CF8206C40F01000ED
:102A200020642046FFF768FA70BD10B50146806B40
:102A300009680968C9052FD40021C18501680C31D6
:102A400051E8002F22F4807241E80023002BF5D1D9
:102A50000168143151E8002F22F0010241E80023FF
:102A6000002BF5D10168143151E8002F22F040020B
:102A700041E80023002BF5D1202180F83E10016BA6
:102A8000012909D101680C3151E8002F22F0100210
:102A900041E80023002BF5D1016B012902D0FFF79B
:102AA0001DFC10BD818DFFF726FA10BD10B5806B9F
:102AB000016B012902D0FFF77BFC10BD818D490815
:102AC000FFF719FA10BD10B50146806B0968096857
:102AD000C90516D40021C1840168143151E8002FC2
:102AE00022F0800241E80023002BF5D101680C316F
:102AF00051E8002F42F0400241E80023002BF5D1BD
:102B000010BDFFF79DFC10BD10B5806BFFF799FC61
:102B100010BD01680C3151E8002F22F4907241E899
:102B20000023002BF5D10168143151E8002F22F069
:102B3000010241E80023002BF5D1016B012909D1E5
:102B400001680C3151E8002F22F0100241E8002307
:102B5000002BF5D1202180F83E1000210163704741
:102B600001680C3151E8002F22F0C00241E8002337
:102B7000002BF5D1202180F83D10704708B590F862
:102B80003E10222901D0022008BD82684FF48053F4
:102B90009A4201D1016921B1816A9A421BD04AB19E
:102BA0000AE00268816A5268C2F308020A80816AF8
:102BB000891C08E0026972B10268526802F07F0263
:102BC0000A70816A491C8162C18D491E0904090C81
:102BD000C18503D019E002685268F1E70168CA684C
:102BE00022F02002CA600168CA6822F48072CA60BA
:102BF00001684A6922F001024A61202180F83E10F2
:102C0000016B012903D0FFF769FB002008BD0021FB
:102C1000016301680C3151E8002F22F0100241E8F5
:102C20000023002BF5D101680A68D20602D50A6894
:102C300049680091818DFFF75EF9E6E770B50446BB
:102C400000680169E26821F4405111430161216982
:102C5000A068E26908436169114308432168CA68B2
:102C600049F20C639A430243CA6020684169A26931
:102C700021F440711143416131492068884202D0FA
:102C80003049884202D1FEF735F901E0FEF722F91A
:102C9000E2690023192164253226B2F5004F6268EB
:102CA00028D0A0FB0101930F9200FDF7DDFA014649
:102CB000B0FBF5F06FF01802504301EB800006EB1B
:102CC0000010B0FBF5F000F0F002B1FBF5F002EB04
:102CD0000012B1FBF5F06FF01803584301EB8000D0
:102CE00006EB0010B0FBF5F000F00F002168104477
:102CF000886070BDA0FB010192185B41FDF7B4FA3A
:102D00000146B0FBF5F00201B1FBF5F06FF01803DE
:102D1000584301EB800006EBC000B0FBF5F000F07B
:102D2000F80002EB4002B1FBF5F0584301EB8000E4
:102D300006EBC000B0FBF5F000F00700D6E700009E
:102D4000001001400014014038B5816282850025E1
:102D5000134604460564222084F83E00A26B1C48FA
:102D6000D063A26B1B481064A26B1B48D064A06B9D
:102D70000A4605652168A06B091DFDF787FD2068DF
:102D800001684068009084F83C50206948B1206890
:102D90000C3050E8001F41F4807140E80012002A16
:102DA000F5D12068143050E8001F41F0010140E8DF
:102DB0000012002AF5D12068143050E8001F41F0BD
:102DC000400140E80012002AF5D1002038BD000083
:102DD0002B2A0008AD2A0008E1290008FEE70907B0
:102DE000090E002804DB00F1E02080F80014704791
:102DF00000F00F0000F1E02080F8141D7047000083
:102E000008B5FDF73BFFFFF719FCFFF71DFB234853
:102E10000024016841F4001101600068224600F4BA
:102E20000010009021460D20FDF788FF0D20FDF7D2
:102E300077FF002211460F20FDF780FF0F20FDF7DE
:102E40006FFFFFF76FFBFFF7A1FB16481449016006
:102E50004FF4E131C0E901140C21C460C0E9044120
:102E60008461C461FFF77EF908B172B6FEE7FFF72F
:102E700023FB0C4800214838FEF78AFE094804214C
:102E80009038FEF783FC062207490648FFF710FA40
:102E90000549FF2036398870FEE7000030380240CF
:102EA000004C00403C0100204C0000204FF04070DE
:102EB000E1EE100A7047000610160006101600001A
:102EC00000000000000001020304060708090000DA
:102ED0000000010203040000F82E0008000000209A
:102EE00064000000C40100085C2F0008640000209A
:102EF0003C080000E00100080100000000000000A4
:102F0000E7030000000000000000000000000000D7
:102F100000000000000020410000204100000000EF
:102F20000AD7A33B000000000000000000000000E2
:102F30000000000000000000000000000000000091
:102F40000000000000000000000000000100000080
:0C2F500010000000000000000024F4004D
:040000050800018965
:00000001FF
